{
  "contractName": "Asset_Management",
  "abi": [
    {
      "constant": true,
      "inputs": [],
      "name": "AssetCount",
      "outputs": [
        {
          "internalType": "uint256",
          "name": "",
          "type": "uint256"
        }
      ],
      "payable": false,
      "stateMutability": "view",
      "type": "function"
    },
    {
      "constant": true,
      "inputs": [],
      "name": "AssetManagementOfficeCount",
      "outputs": [
        {
          "internalType": "uint256",
          "name": "",
          "type": "uint256"
        }
      ],
      "payable": false,
      "stateMutability": "view",
      "type": "function"
    },
    {
      "constant": true,
      "inputs": [],
      "name": "ManufacturerCount",
      "outputs": [
        {
          "internalType": "uint256",
          "name": "",
          "type": "uint256"
        }
      ],
      "payable": false,
      "stateMutability": "view",
      "type": "function"
    },
    {
      "constant": true,
      "inputs": [],
      "name": "OfficeCount",
      "outputs": [
        {
          "internalType": "uint256",
          "name": "",
          "type": "uint256"
        }
      ],
      "payable": false,
      "stateMutability": "view",
      "type": "function"
    },
    {
      "constant": true,
      "inputs": [],
      "name": "RequestCount",
      "outputs": [
        {
          "internalType": "uint256",
          "name": "",
          "type": "uint256"
        }
      ],
      "payable": false,
      "stateMutability": "view",
      "type": "function"
    },
    {
      "constant": true,
      "inputs": [],
      "name": "RequestManufacturerCount",
      "outputs": [
        {
          "internalType": "uint256",
          "name": "",
          "type": "uint256"
        }
      ],
      "payable": false,
      "stateMutability": "view",
      "type": "function"
    },
    {
      "constant": true,
      "inputs": [
        {
          "internalType": "uint256",
          "name": "",
          "type": "uint256"
        }
      ],
      "name": "assetmanagementoffice",
      "outputs": [
        {
          "internalType": "uint256",
          "name": "ID",
          "type": "uint256"
        },
        {
          "internalType": "string",
          "name": "Name",
          "type": "string"
        },
        {
          "internalType": "string",
          "name": "Address",
          "type": "string"
        },
        {
          "internalType": "uint256",
          "name": "NoOfOffices",
          "type": "uint256"
        },
        {
          "internalType": "address",
          "name": "Owner",
          "type": "address"
        }
      ],
      "payable": false,
      "stateMutability": "view",
      "type": "function"
    },
    {
      "constant": true,
      "inputs": [
        {
          "internalType": "uint256",
          "name": "",
          "type": "uint256"
        }
      ],
      "name": "assets",
      "outputs": [
        {
          "internalType": "uint256",
          "name": "AID",
          "type": "uint256"
        },
        {
          "internalType": "string",
          "name": "Name",
          "type": "string"
        },
        {
          "internalType": "string",
          "name": "AssetType",
          "type": "string"
        },
        {
          "internalType": "string",
          "name": "Description",
          "type": "string"
        },
        {
          "internalType": "string",
          "name": "Status",
          "type": "string"
        }
      ],
      "payable": false,
      "stateMutability": "view",
      "type": "function"
    },
    {
      "constant": true,
      "inputs": [
        {
          "internalType": "uint256",
          "name": "",
          "type": "uint256"
        },
        {
          "internalType": "uint256",
          "name": "",
          "type": "uint256"
        }
      ],
      "name": "manufacturerinventory",
      "outputs": [
        {
          "internalType": "uint256",
          "name": "",
          "type": "uint256"
        }
      ],
      "payable": false,
      "stateMutability": "view",
      "type": "function"
    },
    {
      "constant": true,
      "inputs": [
        {
          "internalType": "uint256",
          "name": "",
          "type": "uint256"
        }
      ],
      "name": "manufacturers",
      "outputs": [
        {
          "internalType": "uint256",
          "name": "MID",
          "type": "uint256"
        },
        {
          "internalType": "string",
          "name": "Name",
          "type": "string"
        },
        {
          "internalType": "string",
          "name": "Address",
          "type": "string"
        },
        {
          "internalType": "address",
          "name": "Owner",
          "type": "address"
        }
      ],
      "payable": false,
      "stateMutability": "view",
      "type": "function"
    },
    {
      "constant": true,
      "inputs": [
        {
          "internalType": "uint256",
          "name": "",
          "type": "uint256"
        },
        {
          "internalType": "uint256",
          "name": "",
          "type": "uint256"
        }
      ],
      "name": "officeinventory",
      "outputs": [
        {
          "internalType": "uint256",
          "name": "",
          "type": "uint256"
        }
      ],
      "payable": false,
      "stateMutability": "view",
      "type": "function"
    },
    {
      "constant": true,
      "inputs": [
        {
          "internalType": "uint256",
          "name": "",
          "type": "uint256"
        }
      ],
      "name": "offices",
      "outputs": [
        {
          "internalType": "uint256",
          "name": "OID",
          "type": "uint256"
        },
        {
          "internalType": "string",
          "name": "Name",
          "type": "string"
        },
        {
          "internalType": "string",
          "name": "Address",
          "type": "string"
        },
        {
          "internalType": "uint256",
          "name": "AMOID",
          "type": "uint256"
        },
        {
          "internalType": "address",
          "name": "Owner",
          "type": "address"
        }
      ],
      "payable": false,
      "stateMutability": "view",
      "type": "function"
    },
    {
      "constant": true,
      "inputs": [
        {
          "internalType": "uint256",
          "name": "",
          "type": "uint256"
        }
      ],
      "name": "requestassettable",
      "outputs": [
        {
          "internalType": "uint256",
          "name": "RID",
          "type": "uint256"
        },
        {
          "internalType": "uint256",
          "name": "OID",
          "type": "uint256"
        },
        {
          "internalType": "uint256",
          "name": "AID",
          "type": "uint256"
        },
        {
          "internalType": "uint256",
          "name": "AMOID",
          "type": "uint256"
        },
        {
          "internalType": "uint256",
          "name": "Quantity",
          "type": "uint256"
        },
        {
          "internalType": "string",
          "name": "Status",
          "type": "string"
        },
        {
          "internalType": "string",
          "name": "SupplyStatus",
          "type": "string"
        }
      ],
      "payable": false,
      "stateMutability": "view",
      "type": "function"
    },
    {
      "constant": true,
      "inputs": [
        {
          "internalType": "uint256",
          "name": "",
          "type": "uint256"
        }
      ],
      "name": "requestmanufacturertable",
      "outputs": [
        {
          "internalType": "uint256",
          "name": "RMID",
          "type": "uint256"
        },
        {
          "internalType": "uint256",
          "name": "RID",
          "type": "uint256"
        },
        {
          "internalType": "uint256",
          "name": "AID",
          "type": "uint256"
        },
        {
          "internalType": "uint256",
          "name": "Quantity",
          "type": "uint256"
        },
        {
          "internalType": "string",
          "name": "Status",
          "type": "string"
        },
        {
          "internalType": "uint256",
          "name": "AcceptedManufacturer",
          "type": "uint256"
        }
      ],
      "payable": false,
      "stateMutability": "view",
      "type": "function"
    },
    {
      "constant": false,
      "inputs": [
        {
          "internalType": "string",
          "name": "_name",
          "type": "string"
        },
        {
          "internalType": "string",
          "name": "_address",
          "type": "string"
        }
      ],
      "name": "addAssetManagementOffice",
      "outputs": [],
      "payable": false,
      "stateMutability": "nonpayable",
      "type": "function"
    },
    {
      "constant": true,
      "inputs": [
        {
          "internalType": "uint256",
          "name": "_id",
          "type": "uint256"
        }
      ],
      "name": "viewAssetManagementOffice",
      "outputs": [
        {
          "internalType": "string",
          "name": "",
          "type": "string"
        },
        {
          "internalType": "string",
          "name": "",
          "type": "string"
        }
      ],
      "payable": false,
      "stateMutability": "view",
      "type": "function"
    },
    {
      "constant": false,
      "inputs": [
        {
          "internalType": "string",
          "name": "_name",
          "type": "string"
        },
        {
          "internalType": "string",
          "name": "_address",
          "type": "string"
        },
        {
          "internalType": "uint256",
          "name": "_amoid",
          "type": "uint256"
        },
        {
          "internalType": "uint256[]",
          "name": "_assets",
          "type": "uint256[]"
        }
      ],
      "name": "addOffices",
      "outputs": [],
      "payable": false,
      "stateMutability": "nonpayable",
      "type": "function"
    },
    {
      "constant": true,
      "inputs": [
        {
          "internalType": "uint256",
          "name": "_oid",
          "type": "uint256"
        }
      ],
      "name": "viewOffices",
      "outputs": [
        {
          "internalType": "string",
          "name": "",
          "type": "string"
        },
        {
          "internalType": "string",
          "name": "",
          "type": "string"
        },
        {
          "internalType": "uint256[]",
          "name": "",
          "type": "uint256[]"
        }
      ],
      "payable": false,
      "stateMutability": "view",
      "type": "function"
    },
    {
      "constant": false,
      "inputs": [
        {
          "internalType": "string",
          "name": "_name",
          "type": "string"
        },
        {
          "internalType": "string",
          "name": "_address",
          "type": "string"
        },
        {
          "internalType": "uint256[]",
          "name": "_assets",
          "type": "uint256[]"
        }
      ],
      "name": "addManufacturers",
      "outputs": [],
      "payable": false,
      "stateMutability": "nonpayable",
      "type": "function"
    },
    {
      "constant": true,
      "inputs": [
        {
          "internalType": "uint256",
          "name": "_mid",
          "type": "uint256"
        }
      ],
      "name": "viewManufacturers",
      "outputs": [
        {
          "internalType": "string",
          "name": "",
          "type": "string"
        },
        {
          "internalType": "string",
          "name": "",
          "type": "string"
        },
        {
          "internalType": "uint256[]",
          "name": "",
          "type": "uint256[]"
        }
      ],
      "payable": false,
      "stateMutability": "view",
      "type": "function"
    },
    {
      "constant": false,
      "inputs": [
        {
          "internalType": "string",
          "name": "_name",
          "type": "string"
        },
        {
          "internalType": "string",
          "name": "_assettype",
          "type": "string"
        },
        {
          "internalType": "string",
          "name": "_description",
          "type": "string"
        }
      ],
      "name": "addAssets",
      "outputs": [],
      "payable": false,
      "stateMutability": "nonpayable",
      "type": "function"
    },
    {
      "constant": true,
      "inputs": [
        {
          "internalType": "uint256",
          "name": "_aid",
          "type": "uint256"
        }
      ],
      "name": "viewAssets",
      "outputs": [
        {
          "internalType": "string",
          "name": "",
          "type": "string"
        },
        {
          "internalType": "string",
          "name": "",
          "type": "string"
        },
        {
          "internalType": "string",
          "name": "",
          "type": "string"
        }
      ],
      "payable": false,
      "stateMutability": "view",
      "type": "function"
    },
    {
      "constant": false,
      "inputs": [
        {
          "internalType": "uint256",
          "name": "_oid",
          "type": "uint256"
        },
        {
          "internalType": "uint256",
          "name": "_aid",
          "type": "uint256"
        },
        {
          "internalType": "uint256",
          "name": "_inventory",
          "type": "uint256"
        }
      ],
      "name": "addOfficeInventory",
      "outputs": [],
      "payable": false,
      "stateMutability": "nonpayable",
      "type": "function"
    },
    {
      "constant": true,
      "inputs": [
        {
          "internalType": "uint256",
          "name": "_oid",
          "type": "uint256"
        },
        {
          "internalType": "uint256",
          "name": "_aid",
          "type": "uint256"
        }
      ],
      "name": "viewOfficeInventory",
      "outputs": [
        {
          "internalType": "uint256",
          "name": "",
          "type": "uint256"
        }
      ],
      "payable": false,
      "stateMutability": "view",
      "type": "function"
    },
    {
      "constant": false,
      "inputs": [
        {
          "internalType": "uint256",
          "name": "_mid",
          "type": "uint256"
        },
        {
          "internalType": "uint256",
          "name": "_aid",
          "type": "uint256"
        },
        {
          "internalType": "uint256",
          "name": "_inventory",
          "type": "uint256"
        }
      ],
      "name": "addManufacturerInventory",
      "outputs": [],
      "payable": false,
      "stateMutability": "nonpayable",
      "type": "function"
    },
    {
      "constant": true,
      "inputs": [
        {
          "internalType": "uint256",
          "name": "_oid",
          "type": "uint256"
        },
        {
          "internalType": "uint256",
          "name": "_aid",
          "type": "uint256"
        }
      ],
      "name": "viewManufacturerInventory",
      "outputs": [
        {
          "internalType": "uint256",
          "name": "",
          "type": "uint256"
        }
      ],
      "payable": false,
      "stateMutability": "view",
      "type": "function"
    },
    {
      "constant": false,
      "inputs": [
        {
          "internalType": "uint256",
          "name": "_oid",
          "type": "uint256"
        },
        {
          "internalType": "uint256",
          "name": "_aid",
          "type": "uint256"
        },
        {
          "internalType": "uint256",
          "name": "_quantity",
          "type": "uint256"
        }
      ],
      "name": "placeAssetRequest",
      "outputs": [],
      "payable": false,
      "stateMutability": "nonpayable",
      "type": "function"
    },
    {
      "constant": true,
      "inputs": [
        {
          "internalType": "uint256",
          "name": "_rid",
          "type": "uint256"
        }
      ],
      "name": "viewRequest",
      "outputs": [
        {
          "internalType": "uint256",
          "name": "",
          "type": "uint256"
        },
        {
          "internalType": "uint256",
          "name": "",
          "type": "uint256"
        },
        {
          "internalType": "string",
          "name": "",
          "type": "string"
        }
      ],
      "payable": false,
      "stateMutability": "view",
      "type": "function"
    },
    {
      "constant": false,
      "inputs": [
        {
          "internalType": "uint256",
          "name": "_rid",
          "type": "uint256"
        }
      ],
      "name": "approveRequest",
      "outputs": [],
      "payable": false,
      "stateMutability": "nonpayable",
      "type": "function"
    },
    {
      "constant": true,
      "inputs": [
        {
          "internalType": "uint256",
          "name": "_rmid",
          "type": "uint256"
        }
      ],
      "name": "viewRequestManufacturer",
      "outputs": [
        {
          "internalType": "uint256",
          "name": "",
          "type": "uint256"
        },
        {
          "internalType": "uint256",
          "name": "",
          "type": "uint256"
        },
        {
          "internalType": "string",
          "name": "",
          "type": "string"
        },
        {
          "internalType": "uint256",
          "name": "",
          "type": "uint256"
        }
      ],
      "payable": false,
      "stateMutability": "view",
      "type": "function"
    },
    {
      "constant": false,
      "inputs": [
        {
          "internalType": "uint256",
          "name": "_rmid",
          "type": "uint256"
        },
        {
          "internalType": "uint256",
          "name": "_mid",
          "type": "uint256"
        }
      ],
      "name": "acceptRequest",
      "outputs": [],
      "payable": false,
      "stateMutability": "nonpayable",
      "type": "function"
    },
    {
      "constant": false,
      "inputs": [
        {
          "internalType": "uint256",
          "name": "_rmid",
          "type": "uint256"
        },
        {
          "internalType": "uint256",
          "name": "_mid",
          "type": "uint256"
        }
      ],
      "name": "supplyAssets",
      "outputs": [],
      "payable": false,
      "stateMutability": "nonpayable",
      "type": "function"
    },
    {
      "constant": false,
      "inputs": [
        {
          "internalType": "uint256",
          "name": "_rid",
          "type": "uint256"
        }
      ],
      "name": "receiveAssets",
      "outputs": [],
      "payable": false,
      "stateMutability": "nonpayable",
      "type": "function"
    },
    {
      "constant": false,
      "inputs": [
        {
          "internalType": "uint256",
          "name": "_rid",
          "type": "uint256"
        }
      ],
      "name": "issueAssets",
      "outputs": [],
      "payable": false,
      "stateMutability": "nonpayable",
      "type": "function"
    }
  ],
  "bytecode": "0x608060405234801561001057600080fd5b50615301806100206000396000f3fe608060405234801561001057600080fd5b50600436106102065760003560e01c806395b08ce61161011a578063c8c0b278116100ad578063d7bda0b21161007c578063d7bda0b214611963578063d7d1bbdb14611981578063db38c165146119af578063dd3a85bc14611b0a578063de67388814611b2857610206565b8063c8c0b2781461150a578063ca77671114611528578063ce1023b81461163b578063cf35bdd01461177157610206565b8063a0d2ae19116100e9578063a0d2ae19146113f8578063a193bdf214611444578063c27b452614611490578063c8b735a1146114c857610206565b806395b08ce6146110515780639ace13741461109d5780639f0f286d146111f15780639f7f1d42146113da57610206565b80633f0498da1161019d57806358cea5591161016c57806358cea55914610c8a57806360f1267c14610ca85780636bfb93c014610dfc5780637e56d17814610e4857806390175af114610f0457610206565b80633f0498da146107c95780633fda0be61461091b578063400ff13814610b015780634e98a5b314610c5c57610206565b80632d628b48116101d95780632d628b4814610510578063349652f61461068f578063353d048d1461075957806339e424931461079b57610206565b806313c4a09b1461020b57806319a977301461024d5780631f22dac81461043d57806326e852501461045b575b600080fd5b61024b6004803603606081101561022157600080fd5b81019080803590602001909291908035906020019092919080359060200190929190505050611b60565b005b61043b6004803603608081101561026357600080fd5b810190808035906020019064010000000081111561028057600080fd5b82018360208201111561029257600080fd5b803590602001918460018302840111640100000000831117156102b457600080fd5b91908080601f016020809104026020016040519081016040528093929190818152602001838380828437600081840152601f19601f8201169050808301925050505050505091929192908035906020019064010000000081111561031757600080fd5b82018360208201111561032957600080fd5b8035906020019184600183028401116401000000008311171561034b57600080fd5b91908080601f016020809104026020016040519081016040528093929190818152602001838380828437600081840152601f19601f82011690508083019250505050505050919291929080359060200190929190803590602001906401000000008111156103b857600080fd5b8201836020820111156103ca57600080fd5b803590602001918460208302840111640100000000831117156103ec57600080fd5b919080806020026020016040519081016040528093929190818152602001838360200280828437600081840152601f19601f820116905080830192505050505050509192919290505050611d9d565b005b610445612049565b6040518082815260200191505060405180910390f35b6104876004803603602081101561047157600080fd5b810190808035906020019092919050505061204f565b6040518084815260200183815260200180602001828103825283818151815260200191508051906020019080838360005b838110156104d35780820151818401526020810190506104b8565b50505050905090810190601f1680156105005780820380516001836020036101000a031916815260200191505b5094505050505060405180910390f35b61053c6004803603602081101561052657600080fd5b81019080803590602001909291905050506121c5565b60405180806020018060200180602001848103845287818151815260200191508051906020019080838360005b83811015610584578082015181840152602081019050610569565b50505050905090810190601f1680156105b15780820380516001836020036101000a031916815260200191505b50848103835286818151815260200191508051906020019080838360005b838110156105ea5780820151818401526020810190506105cf565b50505050905090810190601f1680156106175780820380516001836020036101000a031916815260200191505b50848103825285818151815260200191508051906020019080838360005b83811015610650578082015181840152602081019050610635565b50505050905090810190601f16801561067d5780820380516001836020036101000a031916815260200191505b50965050505050505060405180910390f35b6106bb600480360360208110156106a557600080fd5b81019080803590602001909291905050506123ed565b6040518087815260200186815260200185815260200184815260200180602001838152602001828103825284818151815260200191508051906020019080838360005b838110156107195780820151818401526020810190506106fe565b50505050905090810190601f1680156107465780820380516001836020036101000a031916815260200191505b5097505050505050505060405180910390f35b6107996004803603606081101561076f57600080fd5b810190808035906020019092919080359060200190929190803590602001909291905050506124c1565b005b6107c7600480360360208110156107b157600080fd5b81019080803590602001909291905050506126fe565b005b610919600480360360408110156107df57600080fd5b81019080803590602001906401000000008111156107fc57600080fd5b82018360208201111561080e57600080fd5b8035906020019184600183028401116401000000008311171561083057600080fd5b91908080601f016020809104026020016040519081016040528093929190818152602001838380828437600081840152601f19601f8201169050808301925050505050505091929192908035906020019064010000000081111561089357600080fd5b8201836020820111156108a557600080fd5b803590602001918460018302840111640100000000831117156108c757600080fd5b91908080601f016020809104026020016040519081016040528093929190818152602001838380828437600081840152601f19601f820116905080830192505050505050509192919290505050612ab7565b005b610aff6004803603606081101561093157600080fd5b810190808035906020019064010000000081111561094e57600080fd5b82018360208201111561096057600080fd5b8035906020019184600183028401116401000000008311171561098257600080fd5b91908080601f016020809104026020016040519081016040528093929190818152602001838380828437600081840152601f19601f820116905080830192505050505050509192919290803590602001906401000000008111156109e557600080fd5b8201836020820111156109f757600080fd5b80359060200191846001830284011164010000000083111715610a1957600080fd5b91908080601f016020809104026020016040519081016040528093929190818152602001838380828437600081840152601f19601f82011690508083019250505050505050919291929080359060200190640100000000811115610a7c57600080fd5b820183602082011115610a8e57600080fd5b80359060200191846020830284011164010000000083111715610ab057600080fd5b919080806020026020016040519081016040528093929190818152602001838360200280828437600081840152601f19601f820116905080830192505050505050509192919290505050612bb9565b005b610b2d60048036036020811015610b1757600080fd5b8101908080359060200190929190505050612dab565b60405180806020018060200180602001848103845287818151815260200191508051906020019080838360005b83811015610b75578082015181840152602081019050610b5a565b50505050905090810190601f168015610ba25780820380516001836020036101000a031916815260200191505b50848103835286818151815260200191508051906020019080838360005b83811015610bdb578082015181840152602081019050610bc0565b50505050905090810190601f168015610c085780820380516001836020036101000a031916815260200191505b50848103825285818151815260200191508051906020019060200280838360005b83811015610c44578082015181840152602081019050610c29565b50505050905001965050505050505060405180910390f35b610c8860048036036020811015610c7257600080fd5b8101908080359060200190929190505050612f89565b005b610c926131b9565b6040518082815260200191505060405180910390f35b610cd460048036036020811015610cbe57600080fd5b81019080803590602001909291905050506131bf565b6040518086815260200180602001806020018581526020018473ffffffffffffffffffffffffffffffffffffffff1673ffffffffffffffffffffffffffffffffffffffff168152602001838103835287818151815260200191508051906020019080838360005b83811015610d56578082015181840152602081019050610d3b565b50505050905090810190601f168015610d835780820380516001836020036101000a031916815260200191505b50838103825286818151815260200191508051906020019080838360005b83811015610dbc578082015181840152602081019050610da1565b50505050905090810190601f168015610de95780820380516001836020036101000a031916815260200191505b5097505050505050505060405180910390f35b610e3260048036036040811015610e1257600080fd5b810190808035906020019092919080359060200190929190505050613345565b6040518082815260200191505060405180910390f35b610e7460048036036020811015610e5e57600080fd5b8101908080359060200190929190505050613374565b6040518085815260200184815260200180602001838152602001828103825284818151815260200191508051906020019080838360005b83811015610ec6578082015181840152602081019050610eab565b50505050905090810190601f168015610ef35780820380516001836020036101000a031916815260200191505b509550505050505060405180910390f35b610f3060048036036020811015610f1a57600080fd5b8101908080359060200190929190505050613481565b6040518085815260200180602001806020018473ffffffffffffffffffffffffffffffffffffffff1673ffffffffffffffffffffffffffffffffffffffff168152602001838103835286818151815260200191508051906020019080838360005b83811015610fac578082015181840152602081019050610f91565b50505050905090810190601f168015610fd95780820380516001836020036101000a031916815260200191505b50838103825285818151815260200191508051906020019080838360005b83811015611012578082015181840152602081019050610ff7565b50505050905090810190601f16801561103f5780820380516001836020036101000a031916815260200191505b50965050505050505060405180910390f35b6110876004803603604081101561106757600080fd5b810190808035906020019092919080359060200190929190505050613601565b6040518082815260200191505060405180910390f35b6110c9600480360360208110156110b357600080fd5b8101908080359060200190929190505050613626565b6040518086815260200180602001806020018581526020018473ffffffffffffffffffffffffffffffffffffffff1673ffffffffffffffffffffffffffffffffffffffff168152602001838103835287818151815260200191508051906020019080838360005b8381101561114b578082015181840152602081019050611130565b50505050905090810190601f1680156111785780820380516001836020036101000a031916815260200191505b50838103825286818151815260200191508051906020019080838360005b838110156111b1578082015181840152602081019050611196565b50505050905090810190601f1680156111de5780820380516001836020036101000a031916815260200191505b5097505050505050505060405180910390f35b6113d86004803603606081101561120757600080fd5b810190808035906020019064010000000081111561122457600080fd5b82018360208201111561123657600080fd5b8035906020019184600183028401116401000000008311171561125857600080fd5b91908080601f016020809104026020016040519081016040528093929190818152602001838380828437600081840152601f19601f820116905080830192505050505050509192919290803590602001906401000000008111156112bb57600080fd5b8201836020820111156112cd57600080fd5b803590602001918460018302840111640100000000831117156112ef57600080fd5b91908080601f016020809104026020016040519081016040528093929190818152602001838380828437600081840152601f19601f8201169050808301925050505050505091929192908035906020019064010000000081111561135257600080fd5b82018360208201111561136457600080fd5b8035906020019184600183028401116401000000008311171561138657600080fd5b91908080601f016020809104026020016040519081016040528093929190818152602001838380828437600081840152601f19601f8201169050808301925050505050505091929192905050506137ac565b005b6113e26138b7565b6040518082815260200191505060405180910390f35b61142e6004803603604081101561140e57600080fd5b8101908080359060200190929190803590602001909291905050506138bd565b6040518082815260200191505060405180910390f35b61147a6004803603604081101561145a57600080fd5b8101908080359060200190929190803590602001909291905050506138e2565b6040518082815260200191505060405180910390f35b6114c6600480360360408110156114a657600080fd5b810190808035906020019092919080359060200190929190505050613911565b005b611508600480360360608110156114de57600080fd5b81019080803590602001909291908035906020019092919080359060200190929190505050613bf1565b005b61151261400e565b6040518082815260200191505060405180910390f35b6115546004803603602081101561153e57600080fd5b8101908080359060200190929190505050614014565b604051808060200180602001838103835285818151815260200191508051906020019080838360005b8381101561159857808201518184015260208101905061157d565b50505050905090810190601f1680156115c55780820380516001836020036101000a031916815260200191505b50838103825284818151815260200191508051906020019080838360005b838110156115fe5780820151818401526020810190506115e3565b50505050905090810190601f16801561162b5780820380516001836020036101000a031916815260200191505b5094505050505060405180910390f35b6116676004803603602081101561165157600080fd5b810190808035906020019092919050505061423b565b604051808881526020018781526020018681526020018581526020018481526020018060200180602001838103835285818151815260200191508051906020019080838360005b838110156116c95780820151818401526020810190506116ae565b50505050905090810190601f1680156116f65780820380516001836020036101000a031916815260200191505b50838103825284818151815260200191508051906020019080838360005b8381101561172f578082015181840152602081019050611714565b50505050905090810190601f16801561175c5780820380516001836020036101000a031916815260200191505b50995050505050505050505060405180910390f35b61179d6004803603602081101561178757600080fd5b81019080803590602001909291905050506143ad565b6040518086815260200180602001806020018060200180602001858103855289818151815260200191508051906020019080838360005b838110156117ef5780820151818401526020810190506117d4565b50505050905090810190601f16801561181c5780820380516001836020036101000a031916815260200191505b50858103845288818151815260200191508051906020019080838360005b8381101561185557808201518184015260208101905061183a565b50505050905090810190601f1680156118825780820380516001836020036101000a031916815260200191505b50858103835287818151815260200191508051906020019080838360005b838110156118bb5780820151818401526020810190506118a0565b50505050905090810190601f1680156118e85780820380516001836020036101000a031916815260200191505b50858103825286818151815260200191508051906020019080838360005b83811015611921578082015181840152602081019050611906565b50505050905090810190601f16801561194e5780820380516001836020036101000a031916815260200191505b50995050505050505050505060405180910390f35b61196b614643565b6040518082815260200191505060405180910390f35b6119ad6004803603602081101561199757600080fd5b8101908080359060200190929190505050614649565b005b6119db600480360360208110156119c557600080fd5b8101908080359060200190929190505050614a6f565b60405180806020018060200180602001848103845287818151815260200191508051906020019080838360005b83811015611a23578082015181840152602081019050611a08565b50505050905090810190601f168015611a505780820380516001836020036101000a031916815260200191505b50848103835286818151815260200191508051906020019080838360005b83811015611a89578082015181840152602081019050611a6e565b50505050905090810190601f168015611ab65780820380516001836020036101000a031916815260200191505b50848103825285818151815260200191508051906020019060200280838360005b83811015611af2578082015181840152602081019050611ad7565b50505050905001965050505050505060405180910390f35b611b12614c4d565b6040518082815260200191505060405180910390f35b611b5e60048036036040811015611b3e57600080fd5b810190808035906020019092919080359060200190929190505050614c53565b005b600083118015611b7257506009548311155b611be4576040517f08c379a00000000000000000000000000000000000000000000000000000000081526004018080602001828103825260178152602001807f456e74657220636f7272656374204f666669636520494400000000000000000081525060200191505060405180910390fd5b600082118015611bf65750600b548211155b611c68576040517f08c379a00000000000000000000000000000000000000000000000000000000081526004018080602001828103825260168152602001807f456e74657220636f72726563742041737365742049440000000000000000000081525060200191505060405180910390fd5b600080606060016000878152602001908152602001600020600401805480602002602001604051908101604052809291908181526020018280548015611ccd57602002820191906000526020600020905b815481526020019060010190808311611cb9575b50505050509050600091505b8051821015611d1357808281518110611cee57fe5b6020026020010151851415611d065782806001019350505b8180600101925050611cd9565b60008311611d6c576040517f08c379a000000000000000000000000000000000000000000000000000000000815260040180806020018281038252602a815260200180615240602a913960400191505060405180910390fd5b8360046000888152602001908152602001600020600087815260200190815260200160002081905550505050505050565b600082118015611daf57506008548211155b611e21576040517f08c379a000000000000000000000000000000000000000000000000000000000815260040180806020018281038252600e8152602001807f456e7465722076616c696420494400000000000000000000000000000000000081525060200191505060405180910390fd5b600080600091505b8251821015611e85576000838381518110611e4057fe5b6020026020010151118015611e6a5750600b54838381518110611e5f57fe5b602002602001015111155b15611e785780806001019150505b8180600101925050611e29565b82518114611efb576040517f08c379a00000000000000000000000000000000000000000000000000000000081526004018080602001828103825260188152602001807f456e74657220636f72726563742041737365742049442773000000000000000081525060200191505060405180910390fd5b6009600081548092919060010191905055506040518060c0016040528060095481526020018781526020018681526020018581526020018481526020013373ffffffffffffffffffffffffffffffffffffffff16815250600160006009548152602001908152602001600020600082015181600001556020820151816001019080519060200190611f8d929190615036565b506040820151816002019080519060200190611faa929190615036565b50606082015181600301556080820151816004019080519060200190611fd19291906150b6565b5060a08201518160050160006101000a81548173ffffffffffffffffffffffffffffffffffffffff021916908373ffffffffffffffffffffffffffffffffffffffff16021790555090505060008085815260200190815260200160002060030160008154809291906001019190505550505050505050565b600b5481565b60008060606000841180156120665750600c548411155b6120d8576040517f08c379a00000000000000000000000000000000000000000000000000000000081526004018080602001828103825260188152602001807f456e74657220636f72726563742052657175657374204944000000000000000081525060200191505060405180910390fd5b6006600085815260200190815260200160002060020154600660008681526020019081526020016000206004015460066000878152602001908152602001600020600501808054600181600116156101000203166002900480601f0160208091040260200160405190810160405280929190818152602001828054600181600116156101000203166002900480156121b15780601f10612186576101008083540402835291602001916121b1565b820191906000526020600020905b81548152906001019060200180831161219457829003601f168201915b505050505090509250925092509193909250565b6060806060600360008581526020019081526020016000206001016003600086815260200190815260200160002060020160036000878152602001908152602001600020600301828054600181600116156101000203166002900480601f0160208091040260200160405190810160405280929190818152602001828054600181600116156101000203166002900480156122a15780601f10612276576101008083540402835291602001916122a1565b820191906000526020600020905b81548152906001019060200180831161228457829003601f168201915b50505050509250818054600181600116156101000203166002900480601f01602080910402602001604051908101604052809291908181526020018280546001816001161561010002031660029004801561233d5780601f106123125761010080835404028352916020019161233d565b820191906000526020600020905b81548152906001019060200180831161232057829003601f168201915b50505050509150808054600181600116156101000203166002900480601f0160208091040260200160405190810160405280929190818152602001828054600181600116156101000203166002900480156123d95780601f106123ae576101008083540402835291602001916123d9565b820191906000526020600020905b8154815290600101906020018083116123bc57829003601f168201915b505050505090509250925092509193909250565b6007602052806000526040600020600091509050806000015490806001015490806002015490806003015490806004018054600181600116156101000203166002900480601f0160208091040260200160405190810160405280929190818152602001828054600181600116156101000203166002900480156124b15780601f10612486576101008083540402835291602001916124b1565b820191906000526020600020905b81548152906001019060200180831161249457829003601f168201915b5050505050908060050154905086565b6000831180156124d35750600a548311155b612545576040517f08c379a000000000000000000000000000000000000000000000000000000000815260040180806020018281038252601d8152602001807f456e74657220636f7272656374204d616e75666163747572657220494400000081525060200191505060405180910390fd5b6000821180156125575750600b548211155b6125c9576040517f08c379a00000000000000000000000000000000000000000000000000000000081526004018080602001828103825260168152602001807f456e74657220636f72726563742041737365742049440000000000000000000081525060200191505060405180910390fd5b60008060606002600087815260200190815260200160002060030180548060200260200160405190810160405280929190818152602001828054801561262e57602002820191906000526020600020905b81548152602001906001019080831161261a575b50505050509050600091505b80518210156126745780828151811061264f57fe5b60200260200101518514156126675782806001019350505b818060010192505061263a565b600083116126cd576040517f08c379a000000000000000000000000000000000000000000000000000000000815260040180806020018281038252603481526020018061526a6034913960400191505060405180910390fd5b8360056000888152602001908152602001600020600087815260200190815260200160002081905550505050505050565b6000811180156127105750600d548111155b612782576040517f08c379a00000000000000000000000000000000000000000000000000000000081526004018080602001828103825260118152602001807f456e74657220636f72726563742052494400000000000000000000000000000081525060200191505060405180910390fd5b60405160200180807f526563656976656400000000000000000000000000000000000000000000000081525060080190506040516020818303038152906040528051906020012060066000838152602001908152602001600020600601604051602001808280546001816001161561010002031660029004801561283d5780601f1061281b57610100808354040283529182019161283d565b820191906000526020600020905b815481529060010190602001808311612829575b505091505060405160208183030381529060405280519060200120146128ae576040517f08c379a00000000000000000000000000000000000000000000000000000000081526004018080602001828103825260228152602001806151a96022913960400191505060405180910390fd5b60405160200180807f417070726f7665640000000000000000000000000000000000000000000000008152506008019050604051602081830303815290604052805190602001206006600083815260200190815260200160002060050160405160200180828054600181600116156101000203166002900480156129695780601f10612947576101008083540402835291820191612969565b820191906000526020600020905b815481529060010190602001808311612955575b505091505060405160208183030381529060405280519060200120146129f7576040517f08c379a00000000000000000000000000000000000000000000000000000000081526004018080602001828103825260108152602001807f4e6f742079657420417070726f7665640000000000000000000000000000000081525060200191505060405180910390fd5b60066000828152602001908152602001600020600401546004600060066000858152602001908152602001600020600101548152602001908152602001600020600060066000858152602001908152602001600020600201548152602001908152602001600020540160046000600660008581526020019081526020016000206001015481526020019081526020016000206000600660008581526020019081526020016000206002015481526020019081526020016000208190555050565b6008600081548092919060010191905055506040518060a001604052806008548152602001838152602001828152602001600081526020013373ffffffffffffffffffffffffffffffffffffffff168152506000806008548152602001908152602001600020600082015181600001556020820151816001019080519060200190612b43929190615036565b506040820151816002019080519060200190612b60929190615036565b506060820151816003015560808201518160040160006101000a81548173ffffffffffffffffffffffffffffffffffffffff021916908373ffffffffffffffffffffffffffffffffffffffff1602179055509050505050565b600080600091505b8251821015612c1d576000838381518110612bd857fe5b6020026020010151118015612c025750600b54838381518110612bf757fe5b602002602001015111155b15612c105780806001019150505b8180600101925050612bc1565b82518114612c93576040517f08c379a00000000000000000000000000000000000000000000000000000000081526004018080602001828103825260188152602001807f456e74657220636f72726563742041737365742049442773000000000000000081525060200191505060405180910390fd5b600a600081548092919060010191905055506040518060a00160405280600a5481526020018681526020018581526020018481526020013373ffffffffffffffffffffffffffffffffffffffff1681525060026000600a548152602001908152602001600020600082015181600001556020820151816001019080519060200190612d1f929190615036565b506040820151816002019080519060200190612d3c929190615036565b506060820151816003019080519060200190612d599291906150b6565b5060808201518160040160006101000a81548173ffffffffffffffffffffffffffffffffffffffff021916908373ffffffffffffffffffffffffffffffffffffffff1602179055509050505050505050565b6060806060600260008581526020019081526020016000206001016002600086815260200190815260200160002060020160026000878152602001908152602001600020600301828054600181600116156101000203166002900480601f016020809104026020016040519081016040528092919081815260200182805460018160011615610100020316600290048015612e875780601f10612e5c57610100808354040283529160200191612e87565b820191906000526020600020905b815481529060010190602001808311612e6a57829003601f168201915b50505050509250818054600181600116156101000203166002900480601f016020809104026020016040519081016040528092919081815260200182805460018160011615610100020316600290048015612f235780601f10612ef857610100808354040283529160200191612f23565b820191906000526020600020905b815481529060010190602001808311612f0657829003601f168201915b5050505050915080805480602002602001604051908101604052809291908181526020018280548015612f7557602002820191906000526020600020905b815481526020019060010190808311612f61575b505050505090509250925092509193909250565b600081118015612f9b5750600d548111155b61300d576040517f08c379a00000000000000000000000000000000000000000000000000000000081526004018080602001828103825260118152602001807f456e74657220636f72726563742052494400000000000000000000000000000081525060200191505060405180910390fd5b60405160200180807f496e205472616e73697400000000000000000000000000000000000000000000815250600a019050604051602081830303815290604052805190602001206006600083815260200190815260200160002060060160405160200180828054600181600116156101000203166002900480156130c85780601f106130a65761010080835404028352918201916130c8565b820191906000526020600020905b8154815290600101906020018083116130b4575b50509150506040516020818303038152906040528051906020012014613156576040517f08c379a000000000000000000000000000000000000000000000000000000000815260040180806020018281038252601e8152602001807f4e6f742072656365697665642066726f6d204d616e756661637475726572000081525060200191505060405180910390fd5b6040518060400160405280600881526020017f52656365697665640000000000000000000000000000000000000000000000008152506006600083815260200190815260200160002060060190805190602001906131b5929190615103565b5050565b60095481565b6001602052806000526040600020600091509050806000015490806001018054600181600116156101000203166002900480601f0160208091040260200160405190810160405280929190818152602001828054600181600116156101000203166002900480156132715780601f1061324657610100808354040283529160200191613271565b820191906000526020600020905b81548152906001019060200180831161325457829003601f168201915b505050505090806002018054600181600116156101000203166002900480601f01602080910402602001604051908101604052809291908181526020018280546001816001161561010002031660029004801561330f5780601f106132e45761010080835404028352916020019161330f565b820191906000526020600020905b8154815290600101906020018083116132f257829003601f168201915b5050505050908060030154908060050160009054906101000a900473ffffffffffffffffffffffffffffffffffffffff16905085565b600060056000848152602001908152602001600020600083815260200190815260200160002054905092915050565b6000806060600060076000868152602001908152602001600020600201546007600087815260200190815260200160002060030154600760008881526020019081526020016000206004016007600089815260200190815260200160002060050154818054600181600116156101000203166002900480601f01602080910402602001604051908101604052809291908181526020018280546001816001161561010002031660029004801561346b5780601f106134405761010080835404028352916020019161346b565b820191906000526020600020905b81548152906001019060200180831161344e57829003601f168201915b5050505050915093509350935093509193509193565b6002602052806000526040600020600091509050806000015490806001018054600181600116156101000203166002900480601f0160208091040260200160405190810160405280929190818152602001828054600181600116156101000203166002900480156135335780601f1061350857610100808354040283529160200191613533565b820191906000526020600020905b81548152906001019060200180831161351657829003601f168201915b505050505090806002018054600181600116156101000203166002900480601f0160208091040260200160405190810160405280929190818152602001828054600181600116156101000203166002900480156135d15780601f106135a6576101008083540402835291602001916135d1565b820191906000526020600020905b8154815290600101906020018083116135b457829003601f168201915b5050505050908060040160009054906101000a900473ffffffffffffffffffffffffffffffffffffffff16905084565b6005602052816000526040600020602052806000526040600020600091509150505481565b6000602052806000526040600020600091509050806000015490806001018054600181600116156101000203166002900480601f0160208091040260200160405190810160405280929190818152602001828054600181600116156101000203166002900480156136d85780601f106136ad576101008083540402835291602001916136d8565b820191906000526020600020905b8154815290600101906020018083116136bb57829003601f168201915b505050505090806002018054600181600116156101000203166002900480601f0160208091040260200160405190810160405280929190818152602001828054600181600116156101000203166002900480156137765780601f1061374b57610100808354040283529160200191613776565b820191906000526020600020905b81548152906001019060200180831161375957829003601f168201915b5050505050908060030154908060040160009054906101000a900473ffffffffffffffffffffffffffffffffffffffff16905085565b600b600081548092919060010191905055506040518060a00160405280600b5481526020018481526020018381526020018281526020016040518060400160405280600881526020017f417070726f76656400000000000000000000000000000000000000000000000081525081525060036000600b548152602001908152602001600020600082015181600001556020820151816001019080519060200190613857929190615036565b506040820151816002019080519060200190613874929190615036565b506060820151816003019080519060200190613891929190615036565b5060808201518160040190805190602001906138ae929190615036565b50905050505050565b60085481565b6004602052816000526040600020602052806000526040600020600091509150505481565b600060046000848152602001908152602001600020600083815260200190815260200160002054905092915050565b6000821180156139235750600d548211155b613995576040517f08c379a00000000000000000000000000000000000000000000000000000000081526004018080602001828103825260128152602001807f456e74657220636f727265637420524d4944000000000000000000000000000081525060200191505060405180910390fd5b80600760008481526020019081526020016000206005015414613a20576040517f08c379a00000000000000000000000000000000000000000000000000000000081526004018080602001828103825260208152602001807f416363657074656420627920616e6f74686572204d616e75666163747572657281525060200191505060405180910390fd5b600560008281526020019081526020016000206000600760008581526020019081526020016000206002015481526020019081526020016000205460076000848152602001908152602001600020600301541115613ae6576040517f08c379a00000000000000000000000000000000000000000000000000000000081526004018080602001828103825260148152602001807f4e6f7420656e6f75676820496e76656e746f727900000000000000000000000081525060200191505060405180910390fd5b600760008381526020019081526020016000206003015460056000838152602001908152602001600020600060076000868152602001908152602001600020600201548152602001908152602001600020540360056000838152602001908152602001600020600060076000868152602001908152602001600020600201548152602001908152602001600020819055506040518060400160405280600a81526020017f496e205472616e7369740000000000000000000000000000000000000000000081525060066000600760008681526020019081526020016000206001015481526020019081526020016000206006019080519060200190613bec929190615103565b505050565b600083118015613c0357506009548311155b613c75576040517f08c379a00000000000000000000000000000000000000000000000000000000081526004018080602001828103825260178152602001807f456e74657220636f7272656374204f666669636520494400000000000000000081525060200191505060405180910390fd5b600082118015613c875750600b548211155b613cf9576040517f08c379a00000000000000000000000000000000000000000000000000000000081526004018080602001828103825260168152602001807f456e74657220636f72726563742041737365742049440000000000000000000081525060200191505060405180910390fd5b6001600084815260200190815260200160002060050160009054906101000a900473ffffffffffffffffffffffffffffffffffffffff1673ffffffffffffffffffffffffffffffffffffffff163373ffffffffffffffffffffffffffffffffffffffff1614613db3576040517f08c379a00000000000000000000000000000000000000000000000000000000081526004018080602001828103825260278152602001806151cb6027913960400191505060405180910390fd5b6000606060016000868152602001908152602001600020600401805480602002602001604051908101604052809291908181526020018280548015613e1757602002820191906000526020600020905b815481526020019060010190808311613e03575b5050505050905060008092505b8151831015613e6257818381518110613e3957fe5b6020026020010151851415613e55578080600101915050613e62565b8280600101935050613e24565b60008111613ebb576040517f08c379a000000000000000000000000000000000000000000000000000000000815260040180806020018281038252602681526020018061521a6026913960400191505060405180910390fd5b600c600081548092919060010191905055506040518060e00160405280600c548152602001878152602001868152602001600160008981526020019081526020016000206003015481526020018581526020016040518060400160405280600781526020017f50656e64696e670000000000000000000000000000000000000000000000000081525081526020016040518060400160405280600b81526020017f4e6f74205374617274656400000000000000000000000000000000000000000081525081525060066000600c548152602001908152602001600020600082015181600001556020820151816001015560408201518160020155606082015181600301556080820151816004015560a0820151816005019080519060200190613fe5929190615036565b5060c0820151816006019080519060200190614002929190615036565b50905050505050505050565b600a5481565b60608060008084815260200190815260200160002060040160009054906101000a900473ffffffffffffffffffffffffffffffffffffffff1673ffffffffffffffffffffffffffffffffffffffff163373ffffffffffffffffffffffffffffffffffffffff16146140d0576040517f08c379a00000000000000000000000000000000000000000000000000000000081526004018080602001828103825260288152602001806151f26028913960400191505060405180910390fd5b600080848152602001908152602001600020600101600080858152602001908152602001600020600201818054600181600116156101000203166002900480601f01602080910402602001604051908101604052809291908181526020018280546001816001161561010002031660029004801561418f5780601f106141645761010080835404028352916020019161418f565b820191906000526020600020905b81548152906001019060200180831161417257829003601f168201915b50505050509150808054600181600116156101000203166002900480601f01602080910402602001604051908101604052809291908181526020018280546001816001161561010002031660029004801561422b5780601f106142005761010080835404028352916020019161422b565b820191906000526020600020905b81548152906001019060200180831161420e57829003601f168201915b5050505050905091509150915091565b6006602052806000526040600020600091509050806000015490806001015490806002015490806003015490806004015490806005018054600181600116156101000203166002900480601f0160208091040260200160405190810160405280929190818152602001828054600181600116156101000203166002900480156143055780601f106142da57610100808354040283529160200191614305565b820191906000526020600020905b8154815290600101906020018083116142e857829003601f168201915b505050505090806006018054600181600116156101000203166002900480601f0160208091040260200160405190810160405280929190818152602001828054600181600116156101000203166002900480156143a35780601f10614378576101008083540402835291602001916143a3565b820191906000526020600020905b81548152906001019060200180831161438657829003601f168201915b5050505050905087565b6003602052806000526040600020600091509050806000015490806001018054600181600116156101000203166002900480601f01602080910402602001604051908101604052809291908181526020018280546001816001161561010002031660029004801561445f5780601f106144345761010080835404028352916020019161445f565b820191906000526020600020905b81548152906001019060200180831161444257829003601f168201915b505050505090806002018054600181600116156101000203166002900480601f0160208091040260200160405190810160405280929190818152602001828054600181600116156101000203166002900480156144fd5780601f106144d2576101008083540402835291602001916144fd565b820191906000526020600020905b8154815290600101906020018083116144e057829003601f168201915b505050505090806003018054600181600116156101000203166002900480601f01602080910402602001604051908101604052809291908181526020018280546001816001161561010002031660029004801561459b5780601f106145705761010080835404028352916020019161459b565b820191906000526020600020905b81548152906001019060200180831161457e57829003601f168201915b505050505090806004018054600181600116156101000203166002900480601f0160208091040260200160405190810160405280929190818152602001828054600181600116156101000203166002900480156146395780601f1061460e57610100808354040283529160200191614639565b820191906000526020600020905b81548152906001019060200180831161461c57829003601f168201915b5050505050905085565b600d5481565b60008111801561465b5750600c548111155b6146cd576040517f08c379a00000000000000000000000000000000000000000000000000000000081526004018080602001828103825260188152602001807f456e74657220636f72726563742052657175657374204944000000000000000081525060200191505060405180910390fd5b6000806006600084815260200190815260200160002060030154815260200190815260200160002060040160009054906101000a900473ffffffffffffffffffffffffffffffffffffffff1673ffffffffffffffffffffffffffffffffffffffff163373ffffffffffffffffffffffffffffffffffffffff16146147b9576040517f08c379a000000000000000000000000000000000000000000000000000000000815260040180806020018281038252601a8152602001807f43616e6e6f7420617070726f766520746865207265717565737400000000000081525060200191505060405180910390fd5b60405160200180807f50656e64696e67000000000000000000000000000000000000000000000000008152506007019050604051602081830303815290604052805190602001206006600083815260200190815260200160002060050160405160200180828054600181600116156101000203166002900480156148745780601f10614852576101008083540402835291820191614874565b820191906000526020600020905b815481529060010190602001808311614860575b50509150506040516020818303038152906040528051906020012014614902576040517f08c379a00000000000000000000000000000000000000000000000000000000081526004018080602001828103825260108152602001807f416c726561647920417070726f7665640000000000000000000000000000000081525060200191505060405180910390fd5b6040518060400160405280600881526020017f417070726f766564000000000000000000000000000000000000000000000000815250600660008381526020019081526020016000206005019080519060200190614961929190615103565b50600d600081548092919060010191905055506040518060c00160405280600d54815260200182815260200160066000848152602001908152602001600020600201548152602001600660008481526020019081526020016000206004015481526020016040518060400160405280600981526020017f52657175657374656400000000000000000000000000000000000000000000008152508152602001600081525060076000600d548152602001908152602001600020600082015181600001556020820151816001015560408201518160020155606082015181600301556080820151816004019080519060200190614a5e929190615036565b5060a0820151816005015590505050565b6060806060600160008581526020019081526020016000206001016001600086815260200190815260200160002060020160016000878152602001908152602001600020600401828054600181600116156101000203166002900480601f016020809104026020016040519081016040528092919081815260200182805460018160011615610100020316600290048015614b4b5780601f10614b2057610100808354040283529160200191614b4b565b820191906000526020600020905b815481529060010190602001808311614b2e57829003601f168201915b50505050509250818054600181600116156101000203166002900480601f016020809104026020016040519081016040528092919081815260200182805460018160011615610100020316600290048015614be75780601f10614bbc57610100808354040283529160200191614be7565b820191906000526020600020905b815481529060010190602001808311614bca57829003601f168201915b5050505050915080805480602002602001604051908101604052809291908181526020018280548015614c3957602002820191906000526020600020905b815481526020019060010190808311614c25575b505050505090509250925092509193909250565b600c5481565b600082118015614c655750600d548211155b614cd7576040517f08c379a00000000000000000000000000000000000000000000000000000000081526004018080602001828103825260128152602001807f456e74657220636f727265637420524d4944000000000000000000000000000081525060200191505060405180910390fd5b60405160200180807f5265717565737465640000000000000000000000000000000000000000000000815250600901905060405160208183030381529060405280519060200120600760008481526020019081526020016000206004016040516020018082805460018160011615610100020316600290048015614d925780601f10614d70576101008083540402835291820191614d92565b820191906000526020600020905b815481529060010190602001808311614d7e575b50509150506040516020818303038152906040528051906020012014614e20576040517f08c379a00000000000000000000000000000000000000000000000000000000081526004018080602001828103825260108152602001807f416c72656164792041636365707465640000000000000000000000000000000081525060200191505060405180910390fd5b6000606060026000848152602001908152602001600020600301805480602002602001604051908101604052809291908181526020018280548015614e8457602002820191906000526020600020905b815481526020019060010190808311614e70575b5050505050905060008092505b8151831015614ee557818381518110614ea657fe5b602002602001015160076000878152602001908152602001600020600201541415614ed8578080600101915050614ee5565b8280600101935050614e91565b60008111614f3e576040517f08c379a000000000000000000000000000000000000000000000000000000000815260040180806020018281038252602f81526020018061529e602f913960400191505060405180910390fd5b6040518060400160405280600881526020017f417070726f766564000000000000000000000000000000000000000000000000815250600760008781526020019081526020016000206004019080519060200190614f9d929190615103565b508360076000878152602001908152602001600020600501819055506040518060400160405280600781526020017f53746172746564000000000000000000000000000000000000000000000000008152506006600060076000898152602001908152602001600020600101548152602001908152602001600020600601908051906020019061502e929190615103565b505050505050565b828054600181600116156101000203166002900490600052602060002090601f016020900481019282601f1061507757805160ff19168380011785556150a5565b828001600101855582156150a5579182015b828111156150a4578251825591602001919060010190615089565b5b5090506150b29190615183565b5090565b8280548282559060005260206000209081019282156150f2579160200282015b828111156150f15782518255916020019190600101906150d6565b5b5090506150ff9190615183565b5090565b828054600181600116156101000203166002900490600052602060002090601f016020900481019282601f1061514457805160ff1916838001178555615172565b82800160010185558215615172579182015b82811115615171578251825591602001919060010190615156565b5b50905061517f9190615183565b5090565b6151a591905b808211156151a1576000816000905550600101615189565b5090565b9056fe436865636b20746865207374617475732066726f6d204d616e75666163747572657243616e6e6f7420726571756573742041737365747320666f72206f74686572204f66666963657343616e742076696577206f74686572204173736574204d616e6167656d656e74204f6666696365734974656d206e6f7420666f756e6420696e20746865204f666669636520496e76656e746f7279456e7465726564204173736574206973206e6f742070726573656e7420696e20746865204f6666696365456e7465726564204173736574206973206e6f742070726573656e7420696e20746865204d616e7566616374757265724c6973744974656d206973206e6f7420666f756e6420696e20746865204d616e75666163747572657220496e76656e746f7279a265627a7a72315820327f940d0ee67e623c16626bd624bbe22e3f9aff4b032e3622f3164d2c07dd1a64736f6c63430005100032",
  "source": "pragma solidity ^0.5.0;\r\n\r\ncontract Asset_Management {\r\n    struct AssetManagementOffice {\r\n        uint256 ID;\r\n        string Name;\r\n        string Address;\r\n        uint256 NoOfOffices;\r\n        address Owner;\r\n    }\r\n\r\n    struct Offices {\r\n        uint256 OID;\r\n        string Name;\r\n        string Address;\r\n        uint256 AMOID;\r\n        uint256[] Assets;\r\n        address Owner;\r\n    }\r\n\r\n    struct Manufacturers {\r\n        uint256 MID;\r\n        string Name;\r\n        string Address;\r\n        uint256[] Assets;\r\n        address Owner;\r\n    }\r\n\r\n    struct Assets {\r\n        uint256 AID;\r\n        string Name;\r\n        string AssetType;\r\n        string Description;\r\n        string Status;\r\n    }\r\n\r\n    /*struct OfficeInventory {\r\n        uint256 OID;\r\n        uint256 AID;\r\n        uint256 Inventory;\r\n    } \r\n\r\n    struct ManufacturerInventory {\r\n        uint256 MID;\r\n        uint256 AID;\r\n        uint256 Inventory;\r\n    } */\r\n\r\n    struct RequestAssetTable {\r\n        uint256 RID;\r\n        uint256 OID;\r\n        uint256 AID;\r\n        uint256 AMOID;\r\n        uint256 Quantity;\r\n        string Status;\r\n        string SupplyStatus;\r\n    }\r\n\r\n    struct RequestManufacturerTable {\r\n        uint256 RMID;\r\n        uint256 RID;\r\n        uint256 AID;\r\n        uint256 Quantity;\r\n        string Status;\r\n        uint256 AcceptedManufacturer;\r\n    }\r\n\r\n    mapping(uint256 => AssetManagementOffice) public assetmanagementoffice;\r\n    mapping(uint256 => Offices) public offices;\r\n    mapping(uint256 => Manufacturers) public manufacturers;\r\n    mapping(uint256 => Assets) public assets;\r\n    mapping(uint256 => mapping(uint256 => uint256)) public officeinventory;\r\n    mapping(uint256 => mapping(uint256 => uint256))\r\n        public manufacturerinventory;\r\n    mapping(uint256 => RequestAssetTable) public requestassettable;\r\n    mapping(uint256 => RequestManufacturerTable)\r\n        public requestmanufacturertable;\r\n\r\n    uint256 public AssetManagementOfficeCount;\r\n    uint256 public OfficeCount;\r\n    uint256 public ManufacturerCount;\r\n    uint256 public AssetCount;\r\n    uint256 public RequestCount;\r\n    uint256 public RequestManufacturerCount;\r\n\r\n    function addAssetManagementOffice(\r\n        string memory _name,\r\n        string memory _address\r\n    ) public {\r\n        AssetManagementOfficeCount++;\r\n        assetmanagementoffice[AssetManagementOfficeCount] = AssetManagementOffice(\r\n            AssetManagementOfficeCount,\r\n            _name,\r\n            _address,\r\n            0,\r\n            msg.sender\r\n        );\r\n    }\r\n\r\n    function viewAssetManagementOffice(uint256 _id)\r\n        public\r\n        view\r\n        returns (string memory, string memory)\r\n    {\r\n        require(\r\n            msg.sender == assetmanagementoffice[_id].Owner,\r\n            \"Cant view other Asset Management Offices\"\r\n        );\r\n        return (\r\n            assetmanagementoffice[_id].Name,\r\n            assetmanagementoffice[_id].Address\r\n        );\r\n    }\r\n\r\n    function addOffices(\r\n        string memory _name,\r\n        string memory _address,\r\n        uint256 _amoid,\r\n        uint256[] memory _assets\r\n    ) public {\r\n        require(\r\n            _amoid > 0 && _amoid <= AssetManagementOfficeCount,\r\n            \"Enter valid ID\"\r\n        );\r\n        uint256 i;\r\n        //uint256 j;\r\n        uint256 counter;\r\n        /* for (i = 0; i <= assets.length; i++) {\r\n            for (j = 1; j <= _assets.length; j++) {\r\n                if (_assets[i] == assets[j]) {\r\n                    counter++;\r\n                    break;\r\n                }\r\n            }\r\n        } */\r\n        for (i = 0; i < _assets.length; i++) {\r\n            if (_assets[i] > 0 && _assets[i] <= AssetCount) {\r\n                counter++;\r\n            }\r\n        }\r\n        require(counter == _assets.length, \"Enter correct Asset ID's\");\r\n        OfficeCount++;\r\n        offices[OfficeCount] = Offices(\r\n            OfficeCount,\r\n            _name,\r\n            _address,\r\n            _amoid,\r\n            _assets,\r\n            msg.sender\r\n        );\r\n        assetmanagementoffice[_amoid].NoOfOffices++;\r\n    }\r\n\r\n    function viewOffices(uint256 _oid)\r\n        public\r\n        view\r\n        returns (\r\n            string memory,\r\n            string memory,\r\n            uint256[] memory\r\n        )\r\n    {\r\n        return (\r\n            offices[_oid].Name,\r\n            offices[_oid].Address,\r\n            offices[_oid].Assets\r\n        );\r\n    }\r\n\r\n    function addManufacturers(\r\n        string memory _name,\r\n        string memory _address,\r\n        uint256[] memory _assets\r\n    ) public {\r\n        uint256 i;\r\n        uint256 counter;\r\n        for (i = 0; i < _assets.length; i++) {\r\n            if (_assets[i] > 0 && _assets[i] <= AssetCount) {\r\n                counter++;\r\n            }\r\n        }\r\n        require(counter == _assets.length, \"Enter correct Asset ID's\");\r\n        ManufacturerCount++;\r\n        manufacturers[ManufacturerCount] = Manufacturers(\r\n            ManufacturerCount,\r\n            _name,\r\n            _address,\r\n            _assets,\r\n            msg.sender\r\n        );\r\n    }\r\n\r\n    function viewManufacturers(uint256 _mid)\r\n        public\r\n        view\r\n        returns (\r\n            string memory,\r\n            string memory,\r\n            uint256[] memory\r\n        )\r\n    {\r\n        return (\r\n            manufacturers[_mid].Name,\r\n            manufacturers[_mid].Address,\r\n            manufacturers[_mid].Assets\r\n        );\r\n    }\r\n\r\n    function addAssets(\r\n        string memory _name,\r\n        string memory _assettype,\r\n        string memory _description\r\n    ) public {\r\n        AssetCount++;\r\n        assets[AssetCount] = Assets(\r\n            AssetCount,\r\n            _name,\r\n            _assettype,\r\n            _description,\r\n            \"Approved\"\r\n        );\r\n    }\r\n\r\n    function viewAssets(uint256 _aid)\r\n        public\r\n        view\r\n        returns (\r\n            string memory,\r\n            string memory,\r\n            string memory\r\n        )\r\n    {\r\n        return (\r\n            assets[_aid].Name,\r\n            assets[_aid].AssetType,\r\n            assets[_aid].Description\r\n        );\r\n    }\r\n\r\n    function addOfficeInventory(\r\n        uint256 _oid,\r\n        uint256 _aid,\r\n        uint256 _inventory\r\n    ) public {\r\n        require(_oid > 0 && _oid <= OfficeCount, \"Enter correct Office ID\");\r\n        require(_aid > 0 && _aid <= AssetCount, \"Enter correct Asset ID\");\r\n        uint256 counter;\r\n        uint256 i;\r\n        uint256[] memory j = offices[_oid].Assets;\r\n        for (i = 0; i < j.length; i++) {\r\n            if (_aid == j[i]) {\r\n                counter++;\r\n            }\r\n        }\r\n        require(counter > 0, \"Entered Asset is not present in the Office\");\r\n        officeinventory[_oid][_aid] = _inventory;\r\n    }\r\n\r\n    function viewOfficeInventory(uint256 _oid, uint256 _aid)\r\n        public\r\n        view\r\n        returns (uint256)\r\n    {\r\n        return (officeinventory[_oid][_aid]);\r\n    }\r\n\r\n    function addManufacturerInventory(\r\n        uint256 _mid,\r\n        uint256 _aid,\r\n        uint256 _inventory\r\n    ) public {\r\n        require(\r\n            _mid > 0 && _mid <= ManufacturerCount,\r\n            \"Enter correct Manufacturer ID\"\r\n        );\r\n        require(_aid > 0 && _aid <= AssetCount, \"Enter correct Asset ID\");\r\n        uint256 counter;\r\n        uint256 i;\r\n        uint256[] memory j = manufacturers[_mid].Assets;\r\n        for (i = 0; i < j.length; i++) {\r\n            if (_aid == j[i]) {\r\n                counter++;\r\n            }\r\n        }\r\n        require(\r\n            counter > 0,\r\n            \"Entered Asset is not present in the ManufacturerList\"\r\n        );\r\n        manufacturerinventory[_mid][_aid] = _inventory;\r\n    }\r\n\r\n    function viewManufacturerInventory(uint256 _oid, uint256 _aid)\r\n        public\r\n        view\r\n        returns (uint256)\r\n    {\r\n        return (manufacturerinventory[_oid][_aid]);\r\n    }\r\n\r\n    function placeAssetRequest(\r\n        uint256 _oid,\r\n        uint256 _aid,\r\n        uint256 _quantity\r\n    ) public {\r\n        require(_oid > 0 && _oid <= OfficeCount, \"Enter correct Office ID\");\r\n        require(_aid > 0 && _aid <= AssetCount, \"Enter correct Asset ID\");\r\n        require(\r\n            msg.sender == offices[_oid].Owner,\r\n            \"Cannot request Assets for other Offices\"\r\n        );\r\n        uint256 i;\r\n        uint256[] memory j = offices[_oid].Assets;\r\n        uint256 counter;\r\n        for (i = 0; i < j.length; i++) {\r\n            if (_aid == j[i]) {\r\n                counter++;\r\n                break;\r\n            }\r\n        }\r\n        require(counter > 0, \"Item not found in the Office Inventory\");\r\n        RequestCount++;\r\n        requestassettable[RequestCount] = RequestAssetTable(\r\n            RequestCount,\r\n            _oid,\r\n            _aid,\r\n            offices[_oid].AMOID,\r\n            _quantity,\r\n            \"Pending\",\r\n            \"Not Started\"\r\n        );\r\n    }\r\n\r\n    function viewRequest(uint256 _rid)\r\n        public\r\n        view\r\n        returns (\r\n            uint256,\r\n            uint256,\r\n            string memory\r\n        )\r\n    {\r\n        require(_rid > 0 && _rid <= RequestCount, \"Enter correct Request ID\");\r\n        return (\r\n            requestassettable[_rid].AID, //return office ID too\r\n            requestassettable[_rid].Quantity,\r\n            requestassettable[_rid].Status\r\n        );\r\n    }\r\n\r\n    function approveRequest(uint256 _rid) public {\r\n        require(_rid > 0 && _rid <= RequestCount, \"Enter correct Request ID\");\r\n        require(\r\n            msg.sender ==\r\n                assetmanagementoffice[requestassettable[_rid].AMOID].Owner,\r\n            \"Cannot approve the request\"\r\n        );\r\n        require(\r\n            keccak256(abi.encodePacked(requestassettable[_rid].Status)) ==\r\n                keccak256(abi.encodePacked(\"Pending\")),\r\n            \"Already Approved\"\r\n        );\r\n        requestassettable[_rid].Status = \"Approved\";\r\n        RequestManufacturerCount++;\r\n        requestmanufacturertable[RequestManufacturerCount] = RequestManufacturerTable(\r\n            RequestManufacturerCount,\r\n            _rid,\r\n            requestassettable[_rid].AID,\r\n            requestassettable[_rid].Quantity,\r\n            \"Requested\",\r\n            0\r\n        );\r\n    }\r\n\r\n    function viewRequestManufacturer(uint256 _rmid)\r\n        public\r\n        view\r\n        returns (\r\n            uint256,\r\n            uint256,\r\n            string memory,\r\n            uint256\r\n        )\r\n    {\r\n        return (\r\n            requestmanufacturertable[_rmid].AID,\r\n            requestmanufacturertable[_rmid].Quantity,\r\n            requestmanufacturertable[_rmid].Status,\r\n            requestmanufacturertable[_rmid].AcceptedManufacturer\r\n        );\r\n    }\r\n\r\n    function acceptRequest(uint256 _rmid, uint256 _mid) public {\r\n        require(\r\n            _rmid > 0 && _rmid <= RequestManufacturerCount,\r\n            \"Enter correct RMID\"\r\n        );\r\n        require(\r\n            keccak256(\r\n                abi.encodePacked(requestmanufacturertable[_rmid].Status)\r\n            ) == keccak256(abi.encodePacked(\"Requested\")),\r\n            \"Already Accepted\"\r\n        );\r\n        uint256 i;\r\n        uint256[] memory j = manufacturers[_mid].Assets;\r\n        uint256 counter;\r\n        for (i = 0; i < j.length; i++) {\r\n            if (requestmanufacturertable[_rmid].AID == j[i]) {\r\n                counter++;\r\n                break;\r\n            }\r\n        }\r\n        require(counter > 0, \"Item is not found in the Manufacturer Inventory\");\r\n        requestmanufacturertable[_rmid].Status = \"Approved\";\r\n        requestmanufacturertable[_rmid].AcceptedManufacturer = _mid;\r\n        requestassettable[requestmanufacturertable[_rmid].RID]\r\n            .SupplyStatus = \"Started\";\r\n    }\r\n\r\n    function supplyAssets(uint256 _rmid, uint256 _mid) public {\r\n        require(\r\n            _rmid > 0 && _rmid <= RequestManufacturerCount,\r\n            \"Enter correct RMID\"\r\n        );\r\n        require(\r\n            requestmanufacturertable[_rmid].AcceptedManufacturer == _mid,\r\n            \"Accepted by another Manufacturer\"\r\n        );\r\n        require(\r\n            requestmanufacturertable[_rmid].Quantity <=\r\n                manufacturerinventory[_mid][requestmanufacturertable[_rmid]\r\n                    .AID],\r\n            \"Not enough Inventory\"\r\n        );\r\n        manufacturerinventory[_mid][requestmanufacturertable[_rmid].AID] =\r\n            manufacturerinventory[_mid][requestmanufacturertable[_rmid].AID] -\r\n            requestmanufacturertable[_rmid].Quantity;\r\n        requestassettable[requestmanufacturertable[_rmid].RID]\r\n            .SupplyStatus = \"In Transit\"; //Show the supply status\r\n    }\r\n\r\n    function receiveAssets(uint256 _rid) public {\r\n        require(\r\n            _rid > 0 && _rid <= RequestManufacturerCount,\r\n            \"Enter correct RID\"\r\n        );\r\n        require(\r\n            keccak256(abi.encodePacked(requestassettable[_rid].SupplyStatus)) ==\r\n                keccak256(abi.encodePacked(\"In Transit\")),\r\n            \"Not received from Manufacturer\"\r\n        );\r\n        requestassettable[_rid].SupplyStatus = \"Received\";\r\n    }\r\n\r\n    function issueAssets(uint256 _rid) public {\r\n        require(\r\n            _rid > 0 && _rid <= RequestManufacturerCount,\r\n            \"Enter correct RID\"\r\n        );\r\n\r\n        require(\r\n            keccak256(abi.encodePacked(requestassettable[_rid].SupplyStatus)) ==\r\n                keccak256(abi.encodePacked(\"Received\")),\r\n            \"Check the status from Manufacturer\"\r\n        );\r\n        require(\r\n            keccak256(abi.encodePacked(requestassettable[_rid].Status)) ==\r\n                keccak256(abi.encodePacked(\"Approved\")),\r\n            \"Not yet Approved\"\r\n        );\r\n        officeinventory[requestassettable[_rid].OID][requestassettable[_rid]\r\n            .AID] =\r\n            officeinventory[requestassettable[_rid].OID][requestassettable[_rid]\r\n                .AID] +\r\n            requestassettable[_rid].Quantity;\r\n    }\r\n}\r\n",
  "sourcePath": "C:\\Users\\chait\\OneDrive\\Desktop\\Eth\\New folder\\Asset Management\\contracts\\AssetManagement.sol",
  "compiler": {
    "name": "solc",
    "version": "0.5.16+commit.9c3226ce.Emscripten.clang"
  },
  "schemaVersion": "3.1.0",
  "updatedAt": "2020-10-08T04:22:49.999Z",
  "networkType": "ethereum",
  "devdoc": {
    "methods": {}
  },
  "userdoc": {
    "methods": {}
  }
}